{
  "_format": "hh-sol-artifact-1",
  "contractName": "NaturedDevelopers",
  "sourceName": "contracts/NaturedDevelopers.sol",
  "abi": [
    {
      "inputs": [],
      "stateMutability": "nonpayable",
      "type": "constructor"
    },
    {
      "anonymous": false,
      "inputs": [
        {
          "indexed": true,
          "internalType": "address",
          "name": "owner",
          "type": "address"
        },
        {
          "indexed": true,
          "internalType": "address",
          "name": "approved",
          "type": "address"
        },
        {
          "indexed": true,
          "internalType": "uint256",
          "name": "tokenId",
          "type": "uint256"
        }
      ],
      "name": "Approval",
      "type": "event"
    },
    {
      "anonymous": false,
      "inputs": [
        {
          "indexed": true,
          "internalType": "address",
          "name": "owner",
          "type": "address"
        },
        {
          "indexed": true,
          "internalType": "address",
          "name": "operator",
          "type": "address"
        },
        {
          "indexed": false,
          "internalType": "bool",
          "name": "approved",
          "type": "bool"
        }
      ],
      "name": "ApprovalForAll",
      "type": "event"
    },
    {
      "anonymous": false,
      "inputs": [
        {
          "indexed": false,
          "internalType": "address",
          "name": "sender",
          "type": "address"
        },
        {
          "indexed": false,
          "internalType": "uint256",
          "name": "tokenId",
          "type": "uint256"
        }
      ],
      "name": "NaturedDevMinted",
      "type": "event"
    },
    {
      "anonymous": false,
      "inputs": [
        {
          "indexed": true,
          "internalType": "address",
          "name": "previousOwner",
          "type": "address"
        },
        {
          "indexed": true,
          "internalType": "address",
          "name": "newOwner",
          "type": "address"
        }
      ],
      "name": "OwnershipTransferred",
      "type": "event"
    },
    {
      "anonymous": false,
      "inputs": [
        {
          "indexed": true,
          "internalType": "address",
          "name": "from",
          "type": "address"
        },
        {
          "indexed": true,
          "internalType": "address",
          "name": "to",
          "type": "address"
        },
        {
          "indexed": true,
          "internalType": "uint256",
          "name": "tokenId",
          "type": "uint256"
        }
      ],
      "name": "Transfer",
      "type": "event"
    },
    {
      "inputs": [],
      "name": "_mint",
      "outputs": [],
      "stateMutability": "nonpayable",
      "type": "function"
    },
    {
      "inputs": [
        {
          "internalType": "address",
          "name": "to",
          "type": "address"
        },
        {
          "internalType": "uint256",
          "name": "tokenId",
          "type": "uint256"
        }
      ],
      "name": "approve",
      "outputs": [],
      "stateMutability": "nonpayable",
      "type": "function"
    },
    {
      "inputs": [
        {
          "internalType": "address",
          "name": "owner",
          "type": "address"
        }
      ],
      "name": "balanceOf",
      "outputs": [
        {
          "internalType": "uint256",
          "name": "",
          "type": "uint256"
        }
      ],
      "stateMutability": "view",
      "type": "function"
    },
    {
      "inputs": [
        {
          "internalType": "uint256",
          "name": "tokenId",
          "type": "uint256"
        }
      ],
      "name": "getApproved",
      "outputs": [
        {
          "internalType": "address",
          "name": "",
          "type": "address"
        }
      ],
      "stateMutability": "view",
      "type": "function"
    },
    {
      "inputs": [
        {
          "internalType": "address",
          "name": "owner",
          "type": "address"
        },
        {
          "internalType": "address",
          "name": "operator",
          "type": "address"
        }
      ],
      "name": "isApprovedForAll",
      "outputs": [
        {
          "internalType": "bool",
          "name": "",
          "type": "bool"
        }
      ],
      "stateMutability": "view",
      "type": "function"
    },
    {
      "inputs": [],
      "name": "name",
      "outputs": [
        {
          "internalType": "string",
          "name": "",
          "type": "string"
        }
      ],
      "stateMutability": "view",
      "type": "function"
    },
    {
      "inputs": [],
      "name": "owner",
      "outputs": [
        {
          "internalType": "address",
          "name": "",
          "type": "address"
        }
      ],
      "stateMutability": "view",
      "type": "function"
    },
    {
      "inputs": [
        {
          "internalType": "uint256",
          "name": "tokenId",
          "type": "uint256"
        }
      ],
      "name": "ownerOf",
      "outputs": [
        {
          "internalType": "address",
          "name": "",
          "type": "address"
        }
      ],
      "stateMutability": "view",
      "type": "function"
    },
    {
      "inputs": [
        {
          "internalType": "uint256",
          "name": "quantity",
          "type": "uint256"
        }
      ],
      "name": "publicMint",
      "outputs": [],
      "stateMutability": "nonpayable",
      "type": "function"
    },
    {
      "inputs": [],
      "name": "renounceOwnership",
      "outputs": [],
      "stateMutability": "nonpayable",
      "type": "function"
    },
    {
      "inputs": [
        {
          "internalType": "address",
          "name": "to",
          "type": "address"
        },
        {
          "internalType": "uint256",
          "name": "tokenId",
          "type": "uint256"
        }
      ],
      "name": "safeMint",
      "outputs": [],
      "stateMutability": "nonpayable",
      "type": "function"
    },
    {
      "inputs": [
        {
          "internalType": "address",
          "name": "from",
          "type": "address"
        },
        {
          "internalType": "address",
          "name": "to",
          "type": "address"
        },
        {
          "internalType": "uint256",
          "name": "tokenId",
          "type": "uint256"
        }
      ],
      "name": "safeTransferFrom",
      "outputs": [],
      "stateMutability": "nonpayable",
      "type": "function"
    },
    {
      "inputs": [
        {
          "internalType": "address",
          "name": "from",
          "type": "address"
        },
        {
          "internalType": "address",
          "name": "to",
          "type": "address"
        },
        {
          "internalType": "uint256",
          "name": "tokenId",
          "type": "uint256"
        },
        {
          "internalType": "bytes",
          "name": "_data",
          "type": "bytes"
        }
      ],
      "name": "safeTransferFrom",
      "outputs": [],
      "stateMutability": "nonpayable",
      "type": "function"
    },
    {
      "inputs": [
        {
          "internalType": "address",
          "name": "operator",
          "type": "address"
        },
        {
          "internalType": "bool",
          "name": "approved",
          "type": "bool"
        }
      ],
      "name": "setApprovalForAll",
      "outputs": [],
      "stateMutability": "nonpayable",
      "type": "function"
    },
    {
      "inputs": [
        {
          "internalType": "bytes4",
          "name": "interfaceId",
          "type": "bytes4"
        }
      ],
      "name": "supportsInterface",
      "outputs": [
        {
          "internalType": "bool",
          "name": "",
          "type": "bool"
        }
      ],
      "stateMutability": "view",
      "type": "function"
    },
    {
      "inputs": [],
      "name": "symbol",
      "outputs": [
        {
          "internalType": "string",
          "name": "",
          "type": "string"
        }
      ],
      "stateMutability": "view",
      "type": "function"
    },
    {
      "inputs": [
        {
          "internalType": "uint256",
          "name": "index",
          "type": "uint256"
        }
      ],
      "name": "tokenByIndex",
      "outputs": [
        {
          "internalType": "uint256",
          "name": "",
          "type": "uint256"
        }
      ],
      "stateMutability": "view",
      "type": "function"
    },
    {
      "inputs": [
        {
          "internalType": "address",
          "name": "owner",
          "type": "address"
        },
        {
          "internalType": "uint256",
          "name": "index",
          "type": "uint256"
        }
      ],
      "name": "tokenOfOwnerByIndex",
      "outputs": [
        {
          "internalType": "uint256",
          "name": "",
          "type": "uint256"
        }
      ],
      "stateMutability": "view",
      "type": "function"
    },
    {
      "inputs": [
        {
          "internalType": "uint256",
          "name": "tokenId",
          "type": "uint256"
        }
      ],
      "name": "tokenURI",
      "outputs": [
        {
          "internalType": "string",
          "name": "",
          "type": "string"
        }
      ],
      "stateMutability": "view",
      "type": "function"
    },
    {
      "inputs": [],
      "name": "totalSupply",
      "outputs": [
        {
          "internalType": "uint256",
          "name": "",
          "type": "uint256"
        }
      ],
      "stateMutability": "view",
      "type": "function"
    },
    {
      "inputs": [
        {
          "internalType": "address",
          "name": "from",
          "type": "address"
        },
        {
          "internalType": "address",
          "name": "to",
          "type": "address"
        },
        {
          "internalType": "uint256",
          "name": "tokenId",
          "type": "uint256"
        }
      ],
      "name": "transferFrom",
      "outputs": [],
      "stateMutability": "nonpayable",
      "type": "function"
    },
    {
      "inputs": [
        {
          "internalType": "address",
          "name": "newOwner",
          "type": "address"
        }
      ],
      "name": "transferOwnership",
      "outputs": [],
      "stateMutability": "nonpayable",
      "type": "function"
    }
  ],
  "bytecode": "0x6080604052612710600d5560405180610100016040528060d381526020016200649560d39139600e90805190602001906200003c929190620019c4565b506040518060400160405280600381526020017f272f3e0000000000000000000000000000000000000000000000000000000000815250600f90805190602001906200008a929190620019c4565b506040518060800160405280605a815260200162006568605a913960109080519060200190620000bc929190620019c4565b50604051806080016040528060538152602001620065c26053913960119080519060200190620000ee929190620019c4565b506040518060800160405280605a815260200162006615605a91396012908051906020019062000120929190620019c4565b506040518060800160405280605a81526020016200666f605a91396013908051906020019062000152929190620019c4565b506040518061014001604052806040518060400160405280600781526020017f233734303062380000000000000000000000000000000000000000000000000081525081526020016040518060400160405280600781526020017f233639333043330000000000000000000000000000000000000000000000000081525081526020016040518060400160405280600781526020017f233545363043450000000000000000000000000000000000000000000000000081525081526020016040518060400160405280600781526020017f233533393044390000000000000000000000000000000000000000000000000081525081526020016040518060400160405280600781526020017f233445413844450000000000000000000000000000000000000000000000000081525081526020016040518060400160405280600781526020017f233438424645330000000000000000000000000000000000000000000000000081525081526020016040518060400160405280600781526020017f233536434645310000000000000000000000000000000000000000000000000081525081526020016040518060400160405280600781526020017f233634444644460000000000000000000000000000000000000000000000000081525081526020016040518060400160405280600781526020017f233732454644440000000000000000000000000000000000000000000000000081525081526020016040518060400160405280600781526020017f2338304646444200000000000000000000000000000000000000000000000000815250815250601490600a620003bd92919062001a55565b506040518061030001604052806040518060400160405280600781526020017f4164616d616e740000000000000000000000000000000000000000000000000081525081526020016040518060400160405280600781526020017f4261736866756c0000000000000000000000000000000000000000000000000081525081526020016040518060400160405280600481526020017f426f6c640000000000000000000000000000000000000000000000000000000081525081526020016040518060400160405280600581526020017f427261766500000000000000000000000000000000000000000000000000000081525081526020016040518060400160405280600481526020017f43616c6d0000000000000000000000000000000000000000000000000000000081525081526020016040518060400160405280600781526020017f4361726566756c0000000000000000000000000000000000000000000000000081525081526020016040518060400160405280600681526020017f446f63696c65000000000000000000000000000000000000000000000000000081525081526020016040518060400160405280600681526020017f47656e746c65000000000000000000000000000000000000000000000000000081525081526020016040518060400160405280600581526020017f486172647900000000000000000000000000000000000000000000000000000081525081526020016040518060400160405280600581526020017f486173747900000000000000000000000000000000000000000000000000000081525081526020016040518060400160405280600681526020017f496d70697368000000000000000000000000000000000000000000000000000081525081526020016040518060400160405280600581526020017f4a6f6c6c7900000000000000000000000000000000000000000000000000000081525081526020016040518060400160405280600381526020017f4c6178000000000000000000000000000000000000000000000000000000000081525081526020016040518060400160405280600681526020017f4c6f6e656c79000000000000000000000000000000000000000000000000000081525081526020016040518060400160405280600481526020017f4d696c640000000000000000000000000000000000000000000000000000000081525081526020016040518060400160405280600681526020017f4d6f64657374000000000000000000000000000000000000000000000000000081525081526020016040518060400160405280600581526020017f4e6169766500000000000000000000000000000000000000000000000000000081525081526020016040518060400160405280600781526020017f4e6175676874790000000000000000000000000000000000000000000000000081525081526020016040518060400160405280600581526020017f517569657400000000000000000000000000000000000000000000000000000081525081526020016040518060400160405280600481526020017f526173680000000000000000000000000000000000000000000000000000000081525081526020016040518060400160405280600781526020017f52656c617865640000000000000000000000000000000000000000000000000081525081526020016040518060400160405280600581526020017f536173737900000000000000000000000000000000000000000000000000000081525081526020016040518060400160405280600781526020017f536572696f75730000000000000000000000000000000000000000000000000081525081526020016040518060400160405280600581526020017f54696d696400000000000000000000000000000000000000000000000000000081525081525060159060186200096292919062001abc565b50604051806104c001604052806040518060400160405280600381526020017f416461000000000000000000000000000000000000000000000000000000000081525081526020016040518060400160405280600881526020017f417373656d626c7900000000000000000000000000000000000000000000000081525081526020016040518060400160405280600481526020017f426173680000000000000000000000000000000000000000000000000000000081525081526020016040518060400160405280600581526020017f424153494300000000000000000000000000000000000000000000000000000081525081526020016040518060400160405280600181526020017f430000000000000000000000000000000000000000000000000000000000000081525081526020016040518060400160405280600381526020017f432b2b000000000000000000000000000000000000000000000000000000000081525081526020016040518060400160405280600281526020017f432300000000000000000000000000000000000000000000000000000000000081525081526020016040518060400160405280600781526020017f436c6f6a7572650000000000000000000000000000000000000000000000000081525081526020016040518060400160405280600581526020017f434f424f4c00000000000000000000000000000000000000000000000000000081525081526020016040518060400160405280600c81526020017f436f66666565536372697074000000000000000000000000000000000000000081525081526020016040518060400160405280600781526020017f4372797374616c0000000000000000000000000000000000000000000000000081525081526020016040518060400160405280600481526020017f446172740000000000000000000000000000000000000000000000000000000081525081526020016040518060400160405280600681526020017f456c69786972000000000000000000000000000000000000000000000000000081525081526020016040518060400160405280600a81526020017f456d616373204c6973700000000000000000000000000000000000000000000081525081526020016040518060400160405280600681526020017f45726c616e67000000000000000000000000000000000000000000000000000081525081526020016040518060400160405280600781526020017f466f727472616e0000000000000000000000000000000000000000000000000081525081526020016040518060400160405280600281526020017f476f00000000000000000000000000000000000000000000000000000000000081525081526020016040518060400160405280600781526020017f4861736b656c6c0000000000000000000000000000000000000000000000000081525081526020016040518060400160405280600681526020017f486f6c792043000000000000000000000000000000000000000000000000000081525081526020016040518060400160405280600481526020017f4a6176610000000000000000000000000000000000000000000000000000000081525081526020016040518060400160405280600a81526020017f4a6176615363726970740000000000000000000000000000000000000000000081525081526020016040518060400160405280600581526020017f4a756c696100000000000000000000000000000000000000000000000000000081525081526020016040518060400160405280600681526020017f4b6f746c696e000000000000000000000000000000000000000000000000000081525081526020016040518060400160405280600481526020017f4c4953500000000000000000000000000000000000000000000000000000000081525081526020016040518060400160405280600381526020017f504850000000000000000000000000000000000000000000000000000000000081525081526020016040518060400160405280600481526020017f5065726c0000000000000000000000000000000000000000000000000000000081525081526020016040518060400160405280600681526020017f507974686f6e000000000000000000000000000000000000000000000000000081525081526020016040518060400160405280600581526020017f5363616c6100000000000000000000000000000000000000000000000000000081525081526020016040518060400160405280600881526020017f536f6c696469747900000000000000000000000000000000000000000000000081525081526020016040518060400160405280600381526020017f53514c000000000000000000000000000000000000000000000000000000000081525081526020016040518060400160405280600581526020017f537769667400000000000000000000000000000000000000000000000000000081525081526020016040518060400160405280600181526020017f520000000000000000000000000000000000000000000000000000000000000081525081526020016040518060400160405280600481526020017f527573740000000000000000000000000000000000000000000000000000000081525081526020016040518060400160405280600481526020017f527562790000000000000000000000000000000000000000000000000000000081525081526020016040518060400160405280600381526020017f546558000000000000000000000000000000000000000000000000000000000081525081526020016040518060400160405280600a81526020017f547970655363726970740000000000000000000000000000000000000000000081525081526020016040518060400160405280600981526020017f56696d736372697074000000000000000000000000000000000000000000000081525081526020016040518060400160405280600581526020017f567970657200000000000000000000000000000000000000000000000000000081525081525060169060266200124192919062001b23565b506040518061032001604052806040518060400160405280600981526020017f446576656c6f706572000000000000000000000000000000000000000000000081525081526020016040518060400160405280601481526020017f46756c6c20537461636b20446576656c6f70657200000000000000000000000081525081526020016040518060400160405280601381526020017f46726f6e7420456e6420446576656c6f7065720000000000000000000000000081525081526020016040518060400160405280601281526020017f4261636b20456e6420446576656c6f706572000000000000000000000000000081525081526020016040518060400160405280601081526020017f4d6f62696c6520446576656c6f7065720000000000000000000000000000000081525081526020016040518060400160405280600c81526020017f554920446576656c6f706572000000000000000000000000000000000000000081525081526020016040518060400160405280600e81526020017f5765623320446576656c6f70657200000000000000000000000000000000000081525081526020016040518060400160405280601281526020017f536f66747761726520446576656c6f706572000000000000000000000000000081525081526020016040518060400160405280600981526020017f54656368204c656164000000000000000000000000000000000000000000000081525081526020016040518060400160405280600881526020017f44657369676e657200000000000000000000000000000000000000000000000081525081526020016040518060400160405280600981526020017f417263686974656374000000000000000000000000000000000000000000000081525081526020016040518060400160405280600881526020017f456e67696e65657200000000000000000000000000000000000000000000000081525081526020016040518060400160405280601181526020017f536f66747761726520456e67696e65657200000000000000000000000000000081525081526020016040518060400160405280600781526020017f53747564656e740000000000000000000000000000000000000000000000000081525081526020016040518060400160405280600981526020017f536369656e74697374000000000000000000000000000000000000000000000081525081526020016040518060400160405280601381526020017f456e67696e656572696e67204d616e616765720000000000000000000000000081525081526020016040518060400160405280600c81526020017f4461746120416e616c797374000000000000000000000000000000000000000081525081526020016040518060400160405280600a81526020017f526573656172636865720000000000000000000000000000000000000000000081525081526020016040518060400160405280600a81526020017f4576616e67656c6973740000000000000000000000000000000000000000000081525081526020016040518060400160405280600481526020017f477572750000000000000000000000000000000000000000000000000000000081525081526020016040518060400160405280600a81526020017f496e666c75656e6365720000000000000000000000000000000000000000000081525081526020016040518060400160405280600581526020017f4e696e6a6100000000000000000000000000000000000000000000000000000081525081526020016040518060400160405280600881526020017f526f636b7374617200000000000000000000000000000000000000000000000081525081526020016040518060400160405280600a81526020017f50726f6772616d6d65720000000000000000000000000000000000000000000081525081526020016040518060400160405280600781526020017f486970737465720000000000000000000000000000000000000000000000000081525081525060179060196200182192919062001b8a565b503480156200182f57600080fd5b506040518060400160405280601181526020017f4e617475726564446576656c6f706572730000000000000000000000000000008152506040518060400160405280600481526020017f4e444556000000000000000000000000000000000000000000000000000000008152508160009080519060200190620018b4929190620019c4565b508060019080519060200190620018cd929190620019c4565b505050620018f0620018e4620018f660201b60201c565b620018fe60201b60201c565b62001ce3565b600033905090565b6000600b60009054906101000a900473ffffffffffffffffffffffffffffffffffffffff16905081600b60006101000a81548173ffffffffffffffffffffffffffffffffffffffff021916908373ffffffffffffffffffffffffffffffffffffffff1602179055508173ffffffffffffffffffffffffffffffffffffffff168173ffffffffffffffffffffffffffffffffffffffff167f8be0079c531659141344cd1fd0a4f28419497f9722a3daafe3b4186f6b6457e060405160405180910390a35050565b828054620019d29062001c7e565b90600052602060002090601f016020900481019282620019f6576000855562001a42565b82601f1062001a1157805160ff191683800117855562001a42565b8280016001018555821562001a42579182015b8281111562001a4157825182559160200191906001019062001a24565b5b50905062001a51919062001bf1565b5090565b82805482825590600052602060002090810192821562001aa9579160200282015b8281111562001aa857825182908051906020019062001a97929190620019c4565b509160200191906001019062001a76565b5b50905062001ab8919062001c10565b5090565b82805482825590600052602060002090810192821562001b10579160200282015b8281111562001b0f57825182908051906020019062001afe929190620019c4565b509160200191906001019062001add565b5b50905062001b1f919062001c10565b5090565b82805482825590600052602060002090810192821562001b77579160200282015b8281111562001b7657825182908051906020019062001b65929190620019c4565b509160200191906001019062001b44565b5b50905062001b86919062001c10565b5090565b82805482825590600052602060002090810192821562001bde579160200282015b8281111562001bdd57825182908051906020019062001bcc929190620019c4565b509160200191906001019062001bab565b5b50905062001bed919062001c10565b5090565b5b8082111562001c0c57600081600090555060010162001bf2565b5090565b5b8082111562001c34576000818162001c2a919062001c38565b5060010162001c11565b5090565b50805462001c469062001c7e565b6000825580601f1062001c5a575062001c7b565b601f01602090049060005260206000209081019062001c7a919062001bf1565b5b50565b6000600282049050600182168062001c9757607f821691505b6020821081141562001cae5762001cad62001cb4565b5b50919050565b7f4e487b7100000000000000000000000000000000000000000000000000000000600052602260045260246000fd5b6147a28062001cf36000396000f3fe608060405234801561001057600080fd5b50600436106101425760003560e01c806370a08231116100b8578063a22cb4651161007c578063a22cb46514610375578063b88d4fde14610391578063c0702d9c146103ad578063c87b56dd146103b7578063e985e9c5146103e7578063f2fde38b1461041757610142565b806370a08231146102e3578063715018a6146103135780638da5cb5b1461031d57806395d89b411461033b578063a14481941461035957610142565b806323b872dd1161010a57806323b872dd146101ff5780632db115441461021b5780632f745c591461023757806342842e0e146102675780634f6ccce7146102835780636352211e146102b357610142565b806301ffc9a71461014757806306fdde0314610177578063081812fc14610195578063095ea7b3146101c557806318160ddd146101e1575b600080fd5b610161600480360381019061015c9190612f36565b610433565b60405161016e91906137cc565b60405180910390f35b61017f610445565b60405161018c91906137e7565b60405180910390f35b6101af60048036038101906101aa9190612f88565b6104d7565b6040516101bc919061373c565b60405180910390f35b6101df60048036038101906101da9190612efa565b61055c565b005b6101e9610674565b6040516101f69190613ac9565b60405180910390f35b61021960048036038101906102149190612df4565b610681565b005b61023560048036038101906102309190612f88565b6106e1565b005b610251600480360381019061024c9190612efa565b61074e565b60405161025e9190613ac9565b60405180910390f35b610281600480360381019061027c9190612df4565b6107f3565b005b61029d60048036038101906102989190612f88565b610813565b6040516102aa9190613ac9565b60405180910390f35b6102cd60048036038101906102c89190612f88565b6108aa565b6040516102da919061373c565b60405180910390f35b6102fd60048036038101906102f89190612d8f565b61095c565b60405161030a9190613ac9565b60405180910390f35b61031b610a14565b005b610325610a9c565b604051610332919061373c565b60405180910390f35b610343610ac6565b60405161035091906137e7565b60405180910390f35b610373600480360381019061036e9190612efa565b610b58565b005b61038f600480360381019061038a9190612ebe565b610be2565b005b6103ab60048036038101906103a69190612e43565b610bf8565b005b6103b5610c5a565b005b6103d160048036038101906103cc9190612f88565b610e45565b6040516103de91906137e7565b60405180910390f35b61040160048036038101906103fc9190612db8565b610e57565b60405161040e91906137cc565b60405180910390f35b610431600480360381019061042c9190612d8f565b610eeb565b005b600061043e82610fe3565b9050919050565b60606000805461045490613d5d565b80601f016020809104026020016040519081016040528092919081815260200182805461048090613d5d565b80156104cd5780601f106104a2576101008083540402835291602001916104cd565b820191906000526020600020905b8154815290600101906020018083116104b057829003601f168201915b5050505050905090565b60006104e28261105d565b610521576040517f08c379a0000000000000000000000000000000000000000000000000000000008152600401610518906139e9565b60405180910390fd5b6004600083815260200190815260200160002060009054906101000a900473ffffffffffffffffffffffffffffffffffffffff169050919050565b6000610567826108aa565b90508073ffffffffffffffffffffffffffffffffffffffff168373ffffffffffffffffffffffffffffffffffffffff1614156105d8576040517f08c379a00000000000000000000000000000000000000000000000000000000081526004016105cf90613a49565b60405180910390fd5b8073ffffffffffffffffffffffffffffffffffffffff166105f76110c9565b73ffffffffffffffffffffffffffffffffffffffff1614806106265750610625816106206110c9565b610e57565b5b610665576040517f08c379a000000000000000000000000000000000000000000000000000000000815260040161065c90613909565b60405180910390fd5b61066f83836110d1565b505050565b6000600980549050905090565b61069261068c6110c9565b8261118a565b6106d1576040517f08c379a00000000000000000000000000000000000000000000000000000000081526004016106c890613a69565b60405180910390fd5b6106dc838383611268565b505050565b60008111610724576040517f08c379a000000000000000000000000000000000000000000000000000000000815260040161071b90613929565b60405180910390fd5b60005b8181101561074a57610737610c5a565b808061074290613dc0565b915050610727565b5050565b60006107598361095c565b821061079a576040517f08c379a000000000000000000000000000000000000000000000000000000000815260040161079190613809565b60405180910390fd5b600760008473ffffffffffffffffffffffffffffffffffffffff1673ffffffffffffffffffffffffffffffffffffffff168152602001908152602001600020600083815260200190815260200160002054905092915050565b61080e83838360405180602001604052806000815250610bf8565b505050565b600061081d610674565b821061085e576040517f08c379a000000000000000000000000000000000000000000000000000000000815260040161085590613a89565b60405180910390fd5b60098281548110610898577f4e487b7100000000000000000000000000000000000000000000000000000000600052603260045260246000fd5b90600052602060002001549050919050565b6000806002600084815260200190815260200160002060009054906101000a900473ffffffffffffffffffffffffffffffffffffffff169050600073ffffffffffffffffffffffffffffffffffffffff168173ffffffffffffffffffffffffffffffffffffffff161415610953576040517f08c379a000000000000000000000000000000000000000000000000000000000815260040161094a90613969565b60405180910390fd5b80915050919050565b60008073ffffffffffffffffffffffffffffffffffffffff168273ffffffffffffffffffffffffffffffffffffffff1614156109cd576040517f08c379a00000000000000000000000000000000000000000000000000000000081526004016109c490613949565b60405180910390fd5b600360008373ffffffffffffffffffffffffffffffffffffffff1673ffffffffffffffffffffffffffffffffffffffff168152602001908152602001600020549050919050565b610a1c6110c9565b73ffffffffffffffffffffffffffffffffffffffff16610a3a610a9c565b73ffffffffffffffffffffffffffffffffffffffff1614610a90576040517f08c379a0000000000000000000000000000000000000000000000000000000008152600401610a8790613a09565b60405180910390fd5b610a9a60006114cf565b565b6000600b60009054906101000a900473ffffffffffffffffffffffffffffffffffffffff16905090565b606060018054610ad590613d5d565b80601f0160208091040260200160405190810160405280929190818152602001828054610b0190613d5d565b8015610b4e5780601f10610b2357610100808354040283529160200191610b4e565b820191906000526020600020905b815481529060010190602001808311610b3157829003601f168201915b5050505050905090565b610b606110c9565b73ffffffffffffffffffffffffffffffffffffffff16610b7e610a9c565b73ffffffffffffffffffffffffffffffffffffffff1614610bd4576040517f08c379a0000000000000000000000000000000000000000000000000000000008152600401610bcb90613a09565b60405180910390fd5b610bde8282611595565b5050565b610bf4610bed6110c9565b83836115b3565b5050565b610c09610c036110c9565b8361118a565b610c48576040517f08c379a0000000000000000000000000000000000000000000000000000000008152600401610c3f90613a69565b60405180910390fd5b610c5484848484611720565b50505050565b600d54610c67600c61177c565b10610ca7576040517f08c379a0000000000000000000000000000000000000000000000000000000008152600401610c9e90613aa9565b60405180910390fd5b6000610cb3600c61177c565b90506000610cc08261178a565b90506000610ccd836118a8565b90506000610cda846119c6565b90506000610ce785611ae4565b905060006040518060400160405280600181526020017f2000000000000000000000000000000000000000000000000000000000000000815250905060008482858486604051602001610d3e959493929190613578565b60405160208183030381529060405290506000600e87600f60118960128a60138b604051602001610d77999897969594939291906135c3565b60405160208183030381529060405290506000610dbc83610d9784611c02565b604051602001610da8929190613691565b604051602081830303815290604052611c02565b9050600081604051602001610dd191906136f8565b6040516020818303038152906040529050610dec338b611595565b610df68a82611dc0565b610e00600c611e34565b7f67c830f3b7139773b645753d26cdf711f3dbe1f8cc508f56832e92c96d956e99338b604051610e319291906137a3565b60405180910390a150505050505050505050565b6060610e5082611e4a565b9050919050565b6000600560008473ffffffffffffffffffffffffffffffffffffffff1673ffffffffffffffffffffffffffffffffffffffff16815260200190815260200160002060008373ffffffffffffffffffffffffffffffffffffffff1673ffffffffffffffffffffffffffffffffffffffff16815260200190815260200160002060009054906101000a900460ff16905092915050565b610ef36110c9565b73ffffffffffffffffffffffffffffffffffffffff16610f11610a9c565b73ffffffffffffffffffffffffffffffffffffffff1614610f67576040517f08c379a0000000000000000000000000000000000000000000000000000000008152600401610f5e90613a09565b60405180910390fd5b600073ffffffffffffffffffffffffffffffffffffffff168173ffffffffffffffffffffffffffffffffffffffff161415610fd7576040517f08c379a0000000000000000000000000000000000000000000000000000000008152600401610fce90613849565b60405180910390fd5b610fe0816114cf565b50565b60007f780e9d63000000000000000000000000000000000000000000000000000000007bffffffffffffffffffffffffffffffffffffffffffffffffffffffff1916827bffffffffffffffffffffffffffffffffffffffffffffffffffffffff19161480611056575061105582611f9c565b5b9050919050565b60008073ffffffffffffffffffffffffffffffffffffffff166002600084815260200190815260200160002060009054906101000a900473ffffffffffffffffffffffffffffffffffffffff1673ffffffffffffffffffffffffffffffffffffffff1614159050919050565b600033905090565b816004600083815260200190815260200160002060006101000a81548173ffffffffffffffffffffffffffffffffffffffff021916908373ffffffffffffffffffffffffffffffffffffffff160217905550808273ffffffffffffffffffffffffffffffffffffffff16611144836108aa565b73ffffffffffffffffffffffffffffffffffffffff167f8c5be1e5ebec7d5bd14f71427d1e84f3dd0314c0f7b2291e5b200ac8c7c3b92560405160405180910390a45050565b60006111958261105d565b6111d4576040517f08c379a00000000000000000000000000000000000000000000000000000000081526004016111cb906138e9565b60405180910390fd5b60006111df836108aa565b90508073ffffffffffffffffffffffffffffffffffffffff168473ffffffffffffffffffffffffffffffffffffffff16148061124e57508373ffffffffffffffffffffffffffffffffffffffff16611236846104d7565b73ffffffffffffffffffffffffffffffffffffffff16145b8061125f575061125e8185610e57565b5b91505092915050565b8273ffffffffffffffffffffffffffffffffffffffff16611288826108aa565b73ffffffffffffffffffffffffffffffffffffffff16146112de576040517f08c379a00000000000000000000000000000000000000000000000000000000081526004016112d590613869565b60405180910390fd5b600073ffffffffffffffffffffffffffffffffffffffff168273ffffffffffffffffffffffffffffffffffffffff16141561134e576040517f08c379a0000000000000000000000000000000000000000000000000000000008152600401611345906138a9565b60405180910390fd5b61135983838361207e565b6113646000826110d1565b6001600360008573ffffffffffffffffffffffffffffffffffffffff1673ffffffffffffffffffffffffffffffffffffffff16815260200190815260200160002060008282546113b49190613c73565b925050819055506001600360008473ffffffffffffffffffffffffffffffffffffffff1673ffffffffffffffffffffffffffffffffffffffff168152602001908152602001600020600082825461140b9190613b92565b92505081905550816002600083815260200190815260200160002060006101000a81548173ffffffffffffffffffffffffffffffffffffffff021916908373ffffffffffffffffffffffffffffffffffffffff160217905550808273ffffffffffffffffffffffffffffffffffffffff168473ffffffffffffffffffffffffffffffffffffffff167fddf252ad1be2c89b69c2b068fc378daa952ba7f163c4a11628f55a4df523b3ef60405160405180910390a46114ca83838361208e565b505050565b6000600b60009054906101000a900473ffffffffffffffffffffffffffffffffffffffff16905081600b60006101000a81548173ffffffffffffffffffffffffffffffffffffffff021916908373ffffffffffffffffffffffffffffffffffffffff1602179055508173ffffffffffffffffffffffffffffffffffffffff168173ffffffffffffffffffffffffffffffffffffffff167f8be0079c531659141344cd1fd0a4f28419497f9722a3daafe3b4186f6b6457e060405160405180910390a35050565b6115af828260405180602001604052806000815250612093565b5050565b8173ffffffffffffffffffffffffffffffffffffffff168373ffffffffffffffffffffffffffffffffffffffff161415611622576040517f08c379a0000000000000000000000000000000000000000000000000000000008152600401611619906138c9565b60405180910390fd5b80600560008573ffffffffffffffffffffffffffffffffffffffff1673ffffffffffffffffffffffffffffffffffffffff16815260200190815260200160002060008473ffffffffffffffffffffffffffffffffffffffff1673ffffffffffffffffffffffffffffffffffffffff16815260200190815260200160002060006101000a81548160ff0219169083151502179055508173ffffffffffffffffffffffffffffffffffffffff168373ffffffffffffffffffffffffffffffffffffffff167f17307eab39ab6107e8899845ad3d59bd9653f200f220920489ca2b5937696c318360405161171391906137cc565b60405180910390a3505050565b61172b848484611268565b611737848484846120ee565b611776576040517f08c379a000000000000000000000000000000000000000000000000000000000815260040161176d90613829565b60405180910390fd5b50505050565b600081600001549050919050565b606060006117be61179a84612285565b6040516020016117aa919061371a565b604051602081830303815290604052612432565b9050601480549050816117d19190613e09565b90506014818154811061180d577f4e487b7100000000000000000000000000000000000000000000000000000000600052603260045260246000fd5b90600052602060002001805461182290613d5d565b80601f016020809104026020016040519081016040528092919081815260200182805461184e90613d5d565b801561189b5780601f106118705761010080835404028352916020019161189b565b820191906000526020600020905b81548152906001019060200180831161187e57829003601f168201915b5050505050915050919050565b606060006118dc6118b884612285565b6040516020016118c891906136d6565b604051602081830303815290604052612432565b9050601580549050816118ef9190613e09565b90506015818154811061192b577f4e487b7100000000000000000000000000000000000000000000000000000000600052603260045260246000fd5b90600052602060002001805461194090613d5d565b80601f016020809104026020016040519081016040528092919081815260200182805461196c90613d5d565b80156119b95780601f1061198e576101008083540402835291602001916119b9565b820191906000526020600020905b81548152906001019060200180831161199c57829003601f168201915b5050505050915050919050565b606060006119fa6119d684612285565b6040516020016119e6919061366f565b604051602081830303815290604052612432565b905060168054905081611a0d9190613e09565b905060168181548110611a49577f4e487b7100000000000000000000000000000000000000000000000000000000600052603260045260246000fd5b906000526020600020018054611a5e90613d5d565b80601f0160208091040260200160405190810160405280929190818152602001828054611a8a90613d5d565b8015611ad75780601f10611aac57610100808354040283529160200191611ad7565b820191906000526020600020905b815481529060010190602001808311611aba57829003601f168201915b5050505050915050919050565b60606000611b18611af484612285565b604051602001611b04919061364d565b604051602081830303815290604052612432565b905060178054905081611b2b9190613e09565b905060178181548110611b67577f4e487b7100000000000000000000000000000000000000000000000000000000600052603260045260246000fd5b906000526020600020018054611b7c90613d5d565b80601f0160208091040260200160405190810160405280929190818152602001828054611ba890613d5d565b8015611bf55780601f10611bca57610100808354040283529160200191611bf5565b820191906000526020600020905b815481529060010190602001808311611bd857829003601f168201915b5050505050915050919050565b60606000825190506000811415611c2b5760405180602001604052806000815250915050611dbb565b60006003600283611c3c9190613b92565b611c469190613be8565b6004611c529190613c19565b90506000602082611c639190613b92565b67ffffffffffffffff811115611ca2577f4e487b7100000000000000000000000000000000000000000000000000000000600052604160045260246000fd5b6040519080825280601f01601f191660200182016040528015611cd45781602001600182028036833780820191505090505b509050600060405180606001604052806040815260200161472d604091399050600181016020830160005b86811015611d785760038101905062ffffff818a015116603f8160121c168401518060081b905060ff603f83600c1c1686015116810190508060081b905060ff603f8360061c1686015116810190508060081b905060ff603f831686015116810190508060e01b90508084526004840193505050611cff565b506003860660018114611d925760028114611da257611dad565b613d3d60f01b6002830352611dad565b603d60f81b60018303525b508484525050819450505050505b919050565b611dc98261105d565b611e08576040517f08c379a0000000000000000000000000000000000000000000000000000000008152600401611dff90613989565b60405180910390fd5b80600660008481526020019081526020016000209080519060200190611e2f929190612c1b565b505050565b6001816000016000828254019250508190555050565b6060611e558261105d565b611e94576040517f08c379a0000000000000000000000000000000000000000000000000000000008152600401611e8b906139c9565b60405180910390fd5b6000600660008481526020019081526020016000208054611eb490613d5d565b80601f0160208091040260200160405190810160405280929190818152602001828054611ee090613d5d565b8015611f2d5780601f10611f0257610100808354040283529160200191611f2d565b820191906000526020600020905b815481529060010190602001808311611f1057829003601f168201915b505050505090506000611f3e612465565b9050600081511415611f54578192505050611f97565b600082511115611f89578082604051602001611f71929190613554565b60405160208183030381529060405292505050611f97565b611f928461247c565b925050505b919050565b60007f80ac58cd000000000000000000000000000000000000000000000000000000007bffffffffffffffffffffffffffffffffffffffffffffffffffffffff1916827bffffffffffffffffffffffffffffffffffffffffffffffffffffffff1916148061206757507f5b5e139f000000000000000000000000000000000000000000000000000000007bffffffffffffffffffffffffffffffffffffffffffffffffffffffff1916827bffffffffffffffffffffffffffffffffffffffffffffffffffffffff1916145b80612077575061207682612523565b5b9050919050565b61208983838361258d565b505050565b505050565b61209d83836126a1565b6120aa60008484846120ee565b6120e9576040517f08c379a00000000000000000000000000000000000000000000000000000000081526004016120e090613829565b60405180910390fd5b505050565b600061210f8473ffffffffffffffffffffffffffffffffffffffff1661287b565b15612278578373ffffffffffffffffffffffffffffffffffffffff1663150b7a026121386110c9565b8786866040518563ffffffff1660e01b815260040161215a9493929190613757565b602060405180830381600087803b15801561217457600080fd5b505af19250505080156121a557506040513d601f19601f820116820180604052508101906121a29190612f5f565b60015b612228573d80600081146121d5576040519150601f19603f3d011682016040523d82523d6000602084013e6121da565b606091505b50600081511415612220576040517f08c379a000000000000000000000000000000000000000000000000000000000815260040161221790613829565b60405180910390fd5b805181602001fd5b63150b7a0260e01b7bffffffffffffffffffffffffffffffffffffffffffffffffffffffff1916817bffffffffffffffffffffffffffffffffffffffffffffffffffffffff19161491505061227d565b600190505b949350505050565b606060008214156122cd576040518060400160405280600181526020017f3000000000000000000000000000000000000000000000000000000000000000815250905061242d565b600082905060005b600082146122ff5780806122e890613dc0565b915050600a826122f89190613be8565b91506122d5565b60008167ffffffffffffffff811115612341577f4e487b7100000000000000000000000000000000000000000000000000000000600052604160045260246000fd5b6040519080825280601f01601f1916602001820160405280156123735781602001600182028036833780820191505090505b5090505b600085146124265760018261238c9190613c73565b9150600a8561239b9190613e09565b60306123a79190613b92565b60f81b8183815181106123e3577f4e487b7100000000000000000000000000000000000000000000000000000000600052603260045260246000fd5b60200101907effffffffffffffffffffffffffffffffffffffffffffffffffffffffffffff1916908160001a905350600a8561241f9190613be8565b9450612377565b8093505050505b919050565b600081604051602001612445919061353d565b6040516020818303038152906040528051906020012060001c9050919050565b606060405180602001604052806000815250905090565b60606124878261105d565b6124c6576040517f08c379a00000000000000000000000000000000000000000000000000000000081526004016124bd90613a29565b60405180910390fd5b60006124d0612465565b905060008151116124f0576040518060200160405280600081525061251b565b806124fa84612285565b60405160200161250b929190613554565b6040516020818303038152906040525b915050919050565b60007f01ffc9a7000000000000000000000000000000000000000000000000000000007bffffffffffffffffffffffffffffffffffffffffffffffffffffffff1916827bffffffffffffffffffffffffffffffffffffffffffffffffffffffff1916149050919050565b61259883838361289e565b600073ffffffffffffffffffffffffffffffffffffffff168373ffffffffffffffffffffffffffffffffffffffff1614156125db576125d6816128a3565b61261a565b8173ffffffffffffffffffffffffffffffffffffffff168373ffffffffffffffffffffffffffffffffffffffff16146126195761261883826128ec565b5b5b600073ffffffffffffffffffffffffffffffffffffffff168273ffffffffffffffffffffffffffffffffffffffff16141561265d5761265881612a59565b61269c565b8273ffffffffffffffffffffffffffffffffffffffff168273ffffffffffffffffffffffffffffffffffffffff161461269b5761269a8282612b9c565b5b5b505050565b600073ffffffffffffffffffffffffffffffffffffffff168273ffffffffffffffffffffffffffffffffffffffff161415612711576040517f08c379a0000000000000000000000000000000000000000000000000000000008152600401612708906139a9565b60405180910390fd5b61271a8161105d565b1561275a576040517f08c379a000000000000000000000000000000000000000000000000000000000815260040161275190613889565b60405180910390fd5b6127666000838361207e565b6001600360008473ffffffffffffffffffffffffffffffffffffffff1673ffffffffffffffffffffffffffffffffffffffff16815260200190815260200160002060008282546127b69190613b92565b92505081905550816002600083815260200190815260200160002060006101000a81548173ffffffffffffffffffffffffffffffffffffffff021916908373ffffffffffffffffffffffffffffffffffffffff160217905550808273ffffffffffffffffffffffffffffffffffffffff16600073ffffffffffffffffffffffffffffffffffffffff167fddf252ad1be2c89b69c2b068fc378daa952ba7f163c4a11628f55a4df523b3ef60405160405180910390a46128776000838361208e565b5050565b6000808273ffffffffffffffffffffffffffffffffffffffff163b119050919050565b505050565b600980549050600a600083815260200190815260200160002081905550600981908060018154018082558091505060019003906000526020600020016000909190919091505550565b600060016128f98461095c565b6129039190613c73565b90506000600860008481526020019081526020016000205490508181146129e8576000600760008673ffffffffffffffffffffffffffffffffffffffff1673ffffffffffffffffffffffffffffffffffffffff168152602001908152602001600020600084815260200190815260200160002054905080600760008773ffffffffffffffffffffffffffffffffffffffff1673ffffffffffffffffffffffffffffffffffffffff168152602001908152602001600020600084815260200190815260200160002081905550816008600083815260200190815260200160002081905550505b6008600084815260200190815260200160002060009055600760008573ffffffffffffffffffffffffffffffffffffffff1673ffffffffffffffffffffffffffffffffffffffff16815260200190815260200160002060008381526020019081526020016000206000905550505050565b60006001600980549050612a6d9190613c73565b90506000600a6000848152602001908152602001600020549050600060098381548110612ac3577f4e487b7100000000000000000000000000000000000000000000000000000000600052603260045260246000fd5b906000526020600020015490508060098381548110612b0b577f4e487b7100000000000000000000000000000000000000000000000000000000600052603260045260246000fd5b906000526020600020018190555081600a600083815260200190815260200160002081905550600a6000858152602001908152602001600020600090556009805480612b80577f4e487b7100000000000000000000000000000000000000000000000000000000600052603160045260246000fd5b6001900381819060005260206000200160009055905550505050565b6000612ba78361095c565b905081600760008573ffffffffffffffffffffffffffffffffffffffff1673ffffffffffffffffffffffffffffffffffffffff168152602001908152602001600020600083815260200190815260200160002081905550806008600084815260200190815260200160002081905550505050565b828054612c2790613d5d565b90600052602060002090601f016020900481019282612c495760008555612c90565b82601f10612c6257805160ff1916838001178555612c90565b82800160010185558215612c90579182015b82811115612c8f578251825591602001919060010190612c74565b5b509050612c9d9190612ca1565b5090565b5b80821115612cba576000816000905550600101612ca2565b5090565b6000612cd1612ccc84613b09565b613ae4565b905082815260208101848484011115612ce957600080fd5b612cf4848285613d1b565b509392505050565b600081359050612d0b816146d0565b92915050565b600081359050612d20816146e7565b92915050565b600081359050612d35816146fe565b92915050565b600081519050612d4a816146fe565b92915050565b600082601f830112612d6157600080fd5b8135612d71848260208601612cbe565b91505092915050565b600081359050612d8981614715565b92915050565b600060208284031215612da157600080fd5b6000612daf84828501612cfc565b91505092915050565b60008060408385031215612dcb57600080fd5b6000612dd985828601612cfc565b9250506020612dea85828601612cfc565b9150509250929050565b600080600060608486031215612e0957600080fd5b6000612e1786828701612cfc565b9350506020612e2886828701612cfc565b9250506040612e3986828701612d7a565b9150509250925092565b60008060008060808587031215612e5957600080fd5b6000612e6787828801612cfc565b9450506020612e7887828801612cfc565b9350506040612e8987828801612d7a565b925050606085013567ffffffffffffffff811115612ea657600080fd5b612eb287828801612d50565b91505092959194509250565b60008060408385031215612ed157600080fd5b6000612edf85828601612cfc565b9250506020612ef085828601612d11565b9150509250929050565b60008060408385031215612f0d57600080fd5b6000612f1b85828601612cfc565b9250506020612f2c85828601612d7a565b9150509250929050565b600060208284031215612f4857600080fd5b6000612f5684828501612d26565b91505092915050565b600060208284031215612f7157600080fd5b6000612f7f84828501612d3b565b91505092915050565b600060208284031215612f9a57600080fd5b6000612fa884828501612d7a565b91505092915050565b612fba81613ca7565b82525050565b612fc981613cb9565b82525050565b6000612fda82613b4f565b612fe48185613b65565b9350612ff4818560208601613d2a565b612ffd81613ef6565b840191505092915050565b600061301382613b5a565b61301d8185613b76565b935061302d818560208601613d2a565b61303681613ef6565b840191505092915050565b600061304c82613b5a565b6130568185613b87565b9350613066818560208601613d2a565b80840191505092915050565b6000815461307f81613d5d565b6130898186613b87565b945060018216600081146130a457600181146130b5576130e8565b60ff198316865281860193506130e8565b6130be85613b3a565b60005b838110156130e0578154818901526001820191506020810190506130c1565b838801955050505b50505092915050565b60006130fe602b83613b76565b915061310982613f07565b604082019050919050565b6000613121603283613b76565b915061312c82613f56565b604082019050919050565b6000613144602683613b76565b915061314f82613fa5565b604082019050919050565b6000613167602583613b76565b915061317282613ff4565b604082019050919050565b600061318a601c83613b76565b915061319582614043565b602082019050919050565b60006131ad600a83613b87565b91506131b88261406c565b600a82019050919050565b60006131d0602483613b76565b91506131db82614095565b604082019050919050565b60006131f3601983613b76565b91506131fe826140e4565b602082019050919050565b6000613216606383613b87565b91506132218261410d565b606382019050919050565b6000613239600b83613b87565b9150613244826141a8565b600b82019050919050565b600061325c602c83613b76565b9150613267826141d1565b604082019050919050565b600061327f600d83613b87565b915061328a82614220565b600d82019050919050565b60006132a2603883613b76565b91506132ad82614249565b604082019050919050565b60006132c5601083613b76565b91506132d082614298565b602082019050919050565b60006132e8602a83613b76565b91506132f3826142c1565b604082019050919050565b600061330b602983613b76565b915061331682614310565b604082019050919050565b600061332e602e83613b76565b91506133398261435f565b604082019050919050565b6000613351600283613b87565b915061335c826143ae565b600282019050919050565b6000613374602083613b76565b915061337f826143d7565b602082019050919050565b6000613397603183613b76565b91506133a282614400565b604082019050919050565b60006133ba602c83613b76565b91506133c58261444f565b604082019050919050565b60006133dd602083613b76565b91506133e88261449e565b602082019050919050565b6000613400602f83613b76565b915061340b826144c7565b604082019050919050565b6000613423600a83613b87565b915061342e82614516565b600a82019050919050565b6000613446602183613b76565b91506134518261453f565b604082019050919050565b6000613469600a83613b87565b91506134748261458e565b600a82019050919050565b600061348c601d83613b87565b9150613497826145b7565b601d82019050919050565b60006134af603183613b76565b91506134ba826145e0565b604082019050919050565b60006134d2602c83613b76565b91506134dd8261462f565b604082019050919050565b60006134f5601383613b76565b91506135008261467e565b602082019050919050565b6000613518600583613b87565b9150613523826146a7565b600582019050919050565b61353781613d11565b82525050565b60006135498284613041565b915081905092915050565b60006135608285613041565b915061356c8284613041565b91508190509392505050565b60006135848288613041565b91506135908287613041565b915061359c8286613041565b91506135a88285613041565b91506135b48284613041565b91508190509695505050505050565b60006135cf828c613072565b91506135db828b613041565b91506135e7828a613072565b91506135f38289613072565b91506135ff8288613041565b915061360b8287613072565b91506136178286613041565b91506136238285613072565b915061362f8284613041565b915061363a82613272565b91508190509a9950505050505050505050565b6000613658826131a0565b91506136648284613041565b915081905092915050565b600061367a8261322c565b91506136868284613041565b915081905092915050565b600061369c82613416565b91506136a88285613041565b91506136b382613209565b91506136bf8284613041565b91506136ca82613344565b91508190509392505050565b60006136e18261345c565b91506136ed8284613041565b915081905092915050565b60006137038261347f565b915061370f8284613041565b915081905092915050565b60006137258261350b565b91506137318284613041565b915081905092915050565b60006020820190506137516000830184612fb1565b92915050565b600060808201905061376c6000830187612fb1565b6137796020830186612fb1565b613786604083018561352e565b81810360608301526137988184612fcf565b905095945050505050565b60006040820190506137b86000830185612fb1565b6137c5602083018461352e565b9392505050565b60006020820190506137e16000830184612fc0565b92915050565b600060208201905081810360008301526138018184613008565b905092915050565b60006020820190508181036000830152613822816130f1565b9050919050565b6000602082019050818103600083015261384281613114565b9050919050565b6000602082019050818103600083015261386281613137565b9050919050565b600060208201905081810360008301526138828161315a565b9050919050565b600060208201905081810360008301526138a28161317d565b9050919050565b600060208201905081810360008301526138c2816131c3565b9050919050565b600060208201905081810360008301526138e2816131e6565b9050919050565b600060208201905081810360008301526139028161324f565b9050919050565b6000602082019050818103600083015261392281613295565b9050919050565b60006020820190508181036000830152613942816132b8565b9050919050565b60006020820190508181036000830152613962816132db565b9050919050565b60006020820190508181036000830152613982816132fe565b9050919050565b600060208201905081810360008301526139a281613321565b9050919050565b600060208201905081810360008301526139c281613367565b9050919050565b600060208201905081810360008301526139e28161338a565b9050919050565b60006020820190508181036000830152613a02816133ad565b9050919050565b60006020820190508181036000830152613a22816133d0565b9050919050565b60006020820190508181036000830152613a42816133f3565b9050919050565b60006020820190508181036000830152613a6281613439565b9050919050565b60006020820190508181036000830152613a82816134a2565b9050919050565b60006020820190508181036000830152613aa2816134c5565b9050919050565b60006020820190508181036000830152613ac2816134e8565b9050919050565b6000602082019050613ade600083018461352e565b92915050565b6000613aee613aff565b9050613afa8282613d8f565b919050565b6000604051905090565b600067ffffffffffffffff821115613b2457613b23613ec7565b5b613b2d82613ef6565b9050602081019050919050565b60008190508160005260206000209050919050565b600081519050919050565b600081519050919050565b600082825260208201905092915050565b600082825260208201905092915050565b600081905092915050565b6000613b9d82613d11565b9150613ba883613d11565b9250827fffffffffffffffffffffffffffffffffffffffffffffffffffffffffffffffff03821115613bdd57613bdc613e3a565b5b828201905092915050565b6000613bf382613d11565b9150613bfe83613d11565b925082613c0e57613c0d613e69565b5b828204905092915050565b6000613c2482613d11565b9150613c2f83613d11565b9250817fffffffffffffffffffffffffffffffffffffffffffffffffffffffffffffffff0483118215151615613c6857613c67613e3a565b5b828202905092915050565b6000613c7e82613d11565b9150613c8983613d11565b925082821015613c9c57613c9b613e3a565b5b828203905092915050565b6000613cb282613cf1565b9050919050565b60008115159050919050565b60007fffffffff0000000000000000000000000000000000000000000000000000000082169050919050565b600073ffffffffffffffffffffffffffffffffffffffff82169050919050565b6000819050919050565b82818337600083830152505050565b60005b83811015613d48578082015181840152602081019050613d2d565b83811115613d57576000848401525b50505050565b60006002820490506001821680613d7557607f821691505b60208210811415613d8957613d88613e98565b5b50919050565b613d9882613ef6565b810181811067ffffffffffffffff82111715613db757613db6613ec7565b5b80604052505050565b6000613dcb82613d11565b91507fffffffffffffffffffffffffffffffffffffffffffffffffffffffffffffffff821415613dfe57613dfd613e3a565b5b600182019050919050565b6000613e1482613d11565b9150613e1f83613d11565b925082613e2f57613e2e613e69565b5b828206905092915050565b7f4e487b7100000000000000000000000000000000000000000000000000000000600052601160045260246000fd5b7f4e487b7100000000000000000000000000000000000000000000000000000000600052601260045260246000fd5b7f4e487b7100000000000000000000000000000000000000000000000000000000600052602260045260246000fd5b7f4e487b7100000000000000000000000000000000000000000000000000000000600052604160045260246000fd5b6000601f19601f8301169050919050565b7f455243373231456e756d657261626c653a206f776e657220696e646578206f7560008201527f74206f6620626f756e6473000000000000000000000000000000000000000000602082015250565b7f4552433732313a207472616e7366657220746f206e6f6e20455243373231526560008201527f63656976657220696d706c656d656e7465720000000000000000000000000000602082015250565b7f4f776e61626c653a206e6577206f776e657220697320746865207a65726f206160008201527f6464726573730000000000000000000000000000000000000000000000000000602082015250565b7f4552433732313a207472616e736665722066726f6d20696e636f72726563742060008201527f6f776e6572000000000000000000000000000000000000000000000000000000602082015250565b7f4552433732313a20746f6b656e20616c7265616479206d696e74656400000000600082015250565b7f54484952445f574f524400000000000000000000000000000000000000000000600082015250565b7f4552433732313a207472616e7366657220746f20746865207a65726f2061646460008201527f7265737300000000000000000000000000000000000000000000000000000000602082015250565b7f4552433732313a20617070726f766520746f2063616c6c657200000000000000600082015250565b7f222c20226465736372697074696f6e223a20224120686967686c79206163636c60008201527f61696d656420636f6c6c656374696f6e206f6620737175617265732e222c202260208201527f696d616765223a2022646174613a696d6167652f7376672b786d6c3b6261736560408201527f36342c0000000000000000000000000000000000000000000000000000000000606082015250565b7f5345434f4e445f574f5244000000000000000000000000000000000000000000600082015250565b7f4552433732313a206f70657261746f7220717565727920666f72206e6f6e657860008201527f697374656e7420746f6b656e0000000000000000000000000000000000000000602082015250565b7f3c2f746578743e3c2f7376673e00000000000000000000000000000000000000600082015250565b7f4552433732313a20617070726f76652063616c6c6572206973206e6f74206f7760008201527f6e6572206e6f7220617070726f76656420666f7220616c6c0000000000000000602082015250565b7f496e76616c6964207175616e7469747900000000000000000000000000000000600082015250565b7f4552433732313a2062616c616e636520717565727920666f7220746865207a6560008201527f726f206164647265737300000000000000000000000000000000000000000000602082015250565b7f4552433732313a206f776e657220717565727920666f72206e6f6e657869737460008201527f656e7420746f6b656e0000000000000000000000000000000000000000000000602082015250565b7f45524337323155524953746f726167653a2055524920736574206f66206e6f6e60008201527f6578697374656e7420746f6b656e000000000000000000000000000000000000602082015250565b7f227d000000000000000000000000000000000000000000000000000000000000600082015250565b7f4552433732313a206d696e7420746f20746865207a65726f2061646472657373600082015250565b7f45524337323155524953746f726167653a2055524920717565727920666f722060008201527f6e6f6e6578697374656e7420746f6b656e000000000000000000000000000000602082015250565b7f4552433732313a20617070726f76656420717565727920666f72206e6f6e657860008201527f697374656e7420746f6b656e0000000000000000000000000000000000000000602082015250565b7f4f776e61626c653a2063616c6c6572206973206e6f7420746865206f776e6572600082015250565b7f4552433732314d657461646174613a2055524920717565727920666f72206e6f60008201527f6e6578697374656e7420746f6b656e0000000000000000000000000000000000602082015250565b7f7b226e616d65223a202200000000000000000000000000000000000000000000600082015250565b7f4552433732313a20617070726f76616c20746f2063757272656e74206f776e6560008201527f7200000000000000000000000000000000000000000000000000000000000000602082015250565b7f46495253545f574f524400000000000000000000000000000000000000000000600082015250565b7f646174613a6170706c69636174696f6e2f6a736f6e3b6261736536342c000000600082015250565b7f4552433732313a207472616e736665722063616c6c6572206973206e6f74206f60008201527f776e6572206e6f7220617070726f766564000000000000000000000000000000602082015250565b7f455243373231456e756d657261626c653a20676c6f62616c20696e646578206f60008201527f7574206f6620626f756e64730000000000000000000000000000000000000000602082015250565b7f4d696e74206c696d697420657863656564656400000000000000000000000000600082015250565b7f434f4c4f52000000000000000000000000000000000000000000000000000000600082015250565b6146d981613ca7565b81146146e457600080fd5b50565b6146f081613cb9565b81146146fb57600080fd5b50565b61470781613cc5565b811461471257600080fd5b50565b61471e81613d11565b811461472957600080fd5b5056fe4142434445464748494a4b4c4d4e4f505152535455565758595a6162636465666768696a6b6c6d6e6f707172737475767778797a303132333435363738392b2fa264697066735822122034fb5267258d60af4d0c3aa2bb732d6cd4d298a06ea63830e04aed32f1c48d4f64736f6c634300080100333c73766720786d6c6e733d27687474703a2f2f7777772e77332e6f72672f323030302f73766727207072657365727665417370656374526174696f3d27784d696e594d696e206d656574272076696577426f783d273020302033353020333530273e3c7374796c653e2e62617365207b2066696c6c3a2077686974653b20666f6e742d66616d696c793a2073657269663b20666f6e742d73697a653a20323470783b207d3c2f7374796c653e3c726563742077696474683d273130302527206865696768743d2731303025272066696c6c3d273c2f746578743e3c7465787420783d273530252720793d273335252720636c6173733d27626173652720646f6d696e616e742d626173656c696e653d276d6964646c652720746578742d616e63686f723d276d6964646c65273e3c7465787420783d273530252720793d273335252720636c6173733d27626173652720646f6d696e616e742d626173656c696e653d276d6964646c652720746578742d616e63686f723d276d6964646c65273e3c2f746578743e3c7465787420783d273530252720793d273435252720636c6173733d27626173652720646f6d696e616e742d626173656c696e653d276d6964646c652720746578742d616e63686f723d276d6964646c65273e3c2f746578743e3c7465787420783d273530252720793d273535252720636c6173733d27626173652720646f6d696e616e742d626173656c696e653d276d6964646c652720746578742d616e63686f723d276d6964646c65273e",
  "linkReferences": {},
  "deployedLinkReferences": {}
}